{
  "transactions": [
    {
      "hash": "0x7d68dd8906678914835ad5500e6c5fa33150af9d972110e421aab3100744913d",
      "transactionType": "CALL",
      "contractName": null,
      "contractAddress": "0x779877a7b0d9e8603169ddbd7836e478b4624789",
      "function": "transferAndCall(address,uint256,bytes)",
      "arguments": [
        "0x9DdfaCa8183c41ad55329BdeeD9F6A8d53168B1B",
        "5000000000000000000",
        "0x9ade2581968961ba77a96b8dd4cbfd26de642296836020e951c547e28862a477"
      ],
      "transaction": {
        "from": "0x89d903affba1e0a9aab4d70b260ae2b220c53ed2",
        "to": "0x779877a7b0d9e8603169ddbd7836e478b4624789",
        "gas": "0x14cbb",
        "value": "0x0",
        "input": "0x4000aea00000000000000000000000009ddfaca8183c41ad55329bdeed9f6a8d53168b1b0000000000000000000000000000000000000000000000004563918244f40000000000000000000000000000000000000000000000000000000000000000006000000000000000000000000000000000000000000000000000000000000000209ade2581968961ba77a96b8dd4cbfd26de642296836020e951c547e28862a477",
        "nonce": "0x7",
        "chainId": "0xaa36a7"
      },
      "additionalContracts": [],
      "isFixedGasLimit": false
    }
  ],
  "receipts": [
    {
      "status": "0x1",
      "cumulativeGasUsed": "0xd7d9c4",
      "logs": [
        {
          "address": "0x779877a7b0d9e8603169ddbd7836e478b4624789",
          "topics": [
            "0xddf252ad1be2c89b69c2b068fc378daa952ba7f163c4a11628f55a4df523b3ef",
            "0x00000000000000000000000089d903affba1e0a9aab4d70b260ae2b220c53ed2",
            "0x0000000000000000000000009ddfaca8183c41ad55329bdeed9f6a8d53168b1b"
          ],
          "data": "0x0000000000000000000000000000000000000000000000004563918244f40000",
          "blockHash": "0x9fdc8664a0c5d542e0b4592f97e95431178e06c1c5ff3abd3564b0317954b6a8",
          "blockNumber": "0x6669e5",
          "transactionHash": "0x7d68dd8906678914835ad5500e6c5fa33150af9d972110e421aab3100744913d",
          "transactionIndex": "0x84",
          "logIndex": "0x9c",
          "removed": false
        },
        {
          "address": "0x779877a7b0d9e8603169ddbd7836e478b4624789",
          "topics": [
            "0xe19260aff97b920c7df27010903aeb9c8d2be5d310a2c67824cf3f15396e4c16",
            "0x00000000000000000000000089d903affba1e0a9aab4d70b260ae2b220c53ed2",
            "0x0000000000000000000000009ddfaca8183c41ad55329bdeed9f6a8d53168b1b"
          ],
          "data": "0x0000000000000000000000000000000000000000000000004563918244f40000000000000000000000000000000000000000000000000000000000000000004000000000000000000000000000000000000000000000000000000000000000209ade2581968961ba77a96b8dd4cbfd26de642296836020e951c547e28862a477",
          "blockHash": "0x9fdc8664a0c5d542e0b4592f97e95431178e06c1c5ff3abd3564b0317954b6a8",
          "blockNumber": "0x6669e5",
          "transactionHash": "0x7d68dd8906678914835ad5500e6c5fa33150af9d972110e421aab3100744913d",
          "transactionIndex": "0x84",
          "logIndex": "0x9d",
          "removed": false
        },
        {
          "address": "0x9ddfaca8183c41ad55329bdeed9f6a8d53168b1b",
          "topics": [
            "0x1ced9348ff549fceab2ac57cd3a9de38edaaab274b725ee82c23e8fc8c4eec7a",
            "0x9ade2581968961ba77a96b8dd4cbfd26de642296836020e951c547e28862a477"
          ],
          "data": "0x00000000000000000000000000000000000000000000000089eb9a5d03fc2589000000000000000000000000000000000000000000000000cf4f2bdf48f02589",
          "blockHash": "0x9fdc8664a0c5d542e0b4592f97e95431178e06c1c5ff3abd3564b0317954b6a8",
          "blockNumber": "0x6669e5",
          "transactionHash": "0x7d68dd8906678914835ad5500e6c5fa33150af9d972110e421aab3100744913d",
          "transactionIndex": "0x84",
          "logIndex": "0x9e",
          "removed": false
        }
      ],
      "logsBloom": "0x00000004000000000000000000000000000000000020000000000000020000000000000000000000000000000000000000000000000000000000000000000000000000000000000004000008000000000000000000000000000020000120000008000000000000000000020000000000000000000000000000000010000040000000000000000000000000010000800000000020000000000000000000000000000000000000000000000000010000000000000000000000400004000000000000000002000000000000000000000000000000000000000100000000000000000090000000000000800000000000000000000000000000000800000000000000",
      "type": "0x2",
      "transactionHash": "0x7d68dd8906678914835ad5500e6c5fa33150af9d972110e421aab3100744913d",
      "transactionIndex": "0x84",
      "blockHash": "0x9fdc8664a0c5d542e0b4592f97e95431178e06c1c5ff3abd3564b0317954b6a8",
      "blockNumber": "0x6669e5",
      "gasUsed": "0xf0e5",
      "effectiveGasPrice": "0x14e41ac43",
      "from": "0x89d903affba1e0a9aab4d70b260ae2b220c53ed2",
      "to": "0x779877a7b0d9e8603169ddbd7836e478b4624789",
      "contractAddress": null
    }
  ],
  "libraries": [],
  "pending": [],
  "returns": {},
  "timestamp": 1726613138,
  "chain": 11155111,
  "commit": "03ab309"
}